S01500005754525F4D41494E5F564F4C322E737265630C
S11300000C948F000C94AC000C94AC000C9418016C
S11300100C9422010C94AC000C942C010C943B0124
S11300200C94AC000C94AC000C94AC000C94AC009C
S11300300C94AC000C9475010C94AC000C94AC00C2
S11300400C94AC000C94AC000C94AC000C94AC007C
S11300500C941C080C94AC000C94AC000C94AC00F4
S11300600C94AC000C94AC000C940E070C94AC00F3
S11300700C94F4080C94AC000C94AC0029077F0792
S11300807F077F077F077F077F077F0729077F0792
S11300907F077F077F077F077F077F072B077F0780
S11300A07F077F077F077F077F077F077F077F071C
S11300B07F077F077F077F077F077F072B077F0760
S11300C07F077F077F077F077F077F077F077F07FC
S11300D07F077F077F077F077F077F0777077F07F4
S11300E07F077F077F077F077F077F0754077F0707
S11300F07F077F077F077F077F077F077F077F07CC
S11301007F077F077F077F077F077F0748077F07F2
S11301107F077F077F077F077F077F076607112415
S11301201FBECFEFD0E1DEBFCDBF11E0A0E0B1E054
S1130130ECEDF4E102C005900D92A432B107D9F7B9
S113014021E0A4E2B1E001C01D92AE3EB207E1F7A6
S11301500E94EF040C946C0A0C940000089583E54B
S11301608CBD8091AB018EBD0DB407FEFDCF1CBCD0
S113017085B185B92E9A8CE291E000000197E9F7E8
S11301802E9808958093AB010E94AF00089580E2F9
S113019080937C0084EE80937A0010927B00089513
S11301A01092780010927900ECE7F0E09081907260
S11301B090839081892B80838CE291E000000197E9
S11301C0E9F7EAE7F0E0808180648083808184FF3E
S11301D0FDCFEAE7F0E0808180618083809179003F
S11301E0089580E00E94D000089583E00E94D0002A
S11301F0682F70E080E090E00E944B092DEC3CEC0D
S11302004CEC5FE30E94AF090E941A09862F0895FF
S113021081E00E94D000089582E00E94D0000895F9
S113022082E584BD82E085BD82E287BD88BD0895F4
S11302301F920F920FB60F9211240F900FBE0F90C2
S11302401F9018951F920F920FB60F9211240F90C2
S11302500FBE0F901F9018951F920F920FB60F921A
S113026011240F900FBE0F901F90189590930101C9
S11302708093000108951F920F920FB60F921124DC
S11302802F933F934F935F936F937F938F939F939A
S1130290AF93BF93EF93FF934F9B05C0E091000191
S11302A0F09101010995FF91EF91BF91AF919F9159
S11302B08F917F916F915F914F913F912F910F900B
S11302C00FBE0F901F901895109280008AE08093C3
S11302D0810089EF90E090938900809388000895CD
S11302E082E080936F00789408951F920F920FB666
S11302F00F9211248F939F93EF93FF938091AC01FE
S11303009091AD0101969093AD018093AC018091E1
S1130310AE0191E0980F9093AE018A3008F45AC070
S11303208091990180FF07C0E9E9F1E08181928120
S11303300196928381838091990181FF07C0E9E945
S1130340F1E0838194810196948383838091990160
S113035082FF07C0E9E9F1E08581968101969683E1
S113036085838091990183FF07C0E9E9F1E08781E2
S113037090850196908787838091990184FF07C0B7
S1130380E9E9F1E0818592850196928781878091E0
S1130390990185FF07C0E9E9F1E083859485019619
S11303A0948783878091990186FF07C0E9E9F1E08A
S11303B085859685019696878587809199018823FE
S11303C03CF4E9E9F1E0878590890196908B878771
S11303D01092AE01FF91EF919F918F910F900FBEFC
S11303E00F901F9018951092AD011092AC0190E0FF
S11303F02091AC013091AD0128173907C8F3089555
S1130400CF93DF93009731F0EC018AE00E94F3016F
S11304102197D9F7DF91CF910895CF93DF93D3E05C
S11304208091AB0181608093AB01C6E084E690E0EB
S11304300E9400020E94AF008091AB01880F80935C
S1130440AB01C15099F7D15059F78FE38093AB01B9
S11304500E94AF0084EF91E00E9400021092AB0171
S11304600E94AF00DF91CF91089580912501811101
S11304700BC04F9B09C081E08093250124E140E03B
S113048060E08AE00E941D060895811107C064E1BE
S113049082EB91E00E949305109225010895CF9379
S11304A0C82F809124018F5F8093240188E091E01C
S11304B00E94FE078C2F0E94F60710922501CF910F
S11304C00895CF93DF9381E00E9414088FEF0E9478
S11304D0140882E10E9414088EEF0E941408C2EBF3
S11304E0D1E08A810E94140888890E9414088989AD
S11304F00E9414088A890E94140888850E9414089E
S11305008A850E9414088B850E9414088C850E9499
S113051014088D850E9414088E850E9414088F8506
S11305200E9414080E94F1000E9414080E94F50021
S11305300E94140884E00E941408DF91CF9108956A
S1130540CF93DF9381E00E9414088FEF0E94140878
S113055084E10E94140882E30E941408C2EBD1E0F3
S113056088850E9414088A810E9414088B810E9445
S113057014088C810E9414088D810E9414088E81B5
S11305800E9414088F810E9414088A850E9414080E
S11305908B850E9414088C850E9414088D850E9406
S11305A014088E850E9414088F850E9414080E94E6
S11305B0F1000E9414080E94F5000E94140884E0CF
S11305C00E941408DF91CF910895CF93DF9381E0C7
S11305D00E9414088FEF0E94140884E10E941408FA
S11305E08FEF0E941408C2EBD1E08A810E941408A4
S11305F08B810E9414088C810E9414088D810E94B2
S113060014088E810E9414088F810E9414088A8520
S11306100E9414088B850E9414088C850E9414087B
S11306208D850E9414088E850E9414088F850E946F
S113063014088091AA010E9414080E940C010E94CF
S113064014080E9408010E94140884E00E941408FF
S1130650DF91CF9108951F93CF93DF9310922401DC
S11306607894C0E0D0E010E02C2F4EE160E08AE006
S11306700E94B1068EE190E00E94000260E08AE0F0
S11306800E948C0621E042EB51E067E18AE00E947F
S1130690490621968091B20190E08C179D0709F0DC
S11306A01F5FCA30D10501F781E00E9414088FEF63
S11306B00E94140887E00E94140888EC0E94140821
S11306C0812F0E941408809124010E94140884E060
S11306D00E941408DF91CF911F910895CF93DF9367
S11306E07894CAE0D0E081E00E9414088FEF0E9461
S11306F0140886E00E94140889EC0E9414088AE019
S11307000E94140884E00E9414088EE690E00E947F
S11307100002219741F7DF91CF9108950F93823022
S1130720D9F028F4882341F0813071F02CC0833053
S1130730D9F0843009F127C0042F262F41E060E06E
S11307408AE00E94DE061FC0042F262F42E060E0EC
S11307508AE00E94DE0617C0042F262F43E060E0E3
S11307608AE00E94DE060FC0042F262F44E060E0DA
S11307708AE00E94DE0607C0042F262F45E060E0D1
S11307808AE00E94DE060F910895EF92FF920F9384
S1130790CF93C82F7B0183E00E94C2008091250182
S11307A0813019F480E30E94C2001092A1011092DA
S11307B0A0018091250181110DC181E08093250163
S11307C0CF3009F4AFC010F5C43009F46BC060F445
S11307D0C13009F44CC008F441C0C23009F450C01F
S11307E0C33009F456C0F0C0CC3009F47AC038F4F0
S11307F0CA3009F460C0CB3009F468C0E5C0CD301C
S113080009F47AC0CE3009F482C0DEC0C93C09F4D0
S1130810B2C090F4C43609F49CC038F4C23309F46D
S11308208CC0C33309F48CC0CFC0C53609F498C05A
S1130830C83C09F49DC0C8C0C23F09F4B1C038F433
S1130840C03F09F49BC0C13F09F4A1C0BDC0CE3F65
S113085009F4AFC0CF3F09F4B5C0B6C0F7010181B8
S1130860208141E060E08AE00E94DE06ADC0F7012D
S11308700181208142E060E08AE00E94DE06A4C09B
S1130880F7010181208143E060E08AE00E94DE06F6
S11308909BC0F7010181208144E060E08AE00E946E
S11308A0DE0692C0F7010181208145E060E08AE024
S11308B00E94DE0689C00E94A002F7010181208106
S11308C04AE060E08AE00E94DE067EC00E94A00248
S11308D0F701018120814BE060E08AE00E94DE069E
S11308E073C00E94A002F701018120814CE060E006
S11308F08AE00E94DE0668C00E94A002F70101811E
S113090020814DE060E08AE00E94DE065DC00E9426
S1130910A002F701018120814EE060E08AE00E949C
S1130920DE0652C00E94A002F701018120814FE03F
S113093060E08AE00E94DE0647C00E94A00244C034
S11309400E94A002F7014281618180810E948E038E
S11309503BC0F70180818093AB010E94AF0034C09B
S1130960F70120814CE160E08AE00E94B1062CC0CE
S11309700E942B0329C00E946E0326C0F701018147
S1130980208141E260E08AE00E94DE061DC0F7019A
S11309900181208142E260E08AE00E94DE0614C008
S11309A0F7010181208143E260E08AE00E94DE06D3
S11309B00BC00E946102F7014281618180810E9423
S11309C08E0302C00E94E502109225011092A30139
S11309D01092A201CF910F91FF90EF90089512B859
S11309E08BE185B98CEF88B981E78BB911B88BEBB2
S11309F084B980EC87B98AE78AB960E875E280E057
S1130A0090E00E94940760E071EE80E090E00E9424
S1130A10C5070E9464018AE20E9466050E94C7001D
S1130A200E941001E3E7F0E0808180688083E8E6BB
S1130A30F0E080818860808380E28093690084E0B4
S1130A408DBB78940E9470010E940D0284EF91E0A6
S1130A500E94000285E10E94C20078948FE492E033
S1130A600E947D0585E492E00E94780585E392E08A
S1130A700E94360185EC93E00E942608E9E9F1E042
S1130A80808188608083808180618083EF0111E0B0
S1130A908F8198854597A8F080912501811111C017
S1130AA01093250160E08AE00E948C0624E142EB69
S1130AB051E060E08AE00E94490610922501188600
S1130AC01F820E94B505E4CF08950895F894809399
S1130AD0B8001092B9008FEF8093BB0084E080933C
S1130AE0BC0080912E01816080932E01789408953A
S1130AF090930501809304010895909303018093DA
S1130B0002010895CF93DF931F92CDB7DEB786E934
S1130B10898389819FEF980F99838111FACF0F9070
S1130B20DF91CF910895ECEBF0E0208120FDFDCF23
S1130B3020912E0120FF10C0662371F0E1E3F1E063
S1130B40A82FB92F6150262F30E02E5C3E4F8191A3
S1130B508D93E217F307D9F70895ECEBF0E0808169
S1130B6080FDFDCF80912D0108958091BC0080FD12
S1130B7063C080912E0180FF47C0809127018823A4
S1130B8009F45AC08130A9F40E94820582E080935E
S1130B902F01E0E6F1E090912C01908390912B01DC
S1130BA0918310922E0195EA9093BC0080932701C3
S1130BB008958230B9F40E94820580912A018F5FE2
S1130BC080932F0180912C01816080932C0180936C
S1130BD0600110922E0185EA8093BC0083E080932B
S1130BE027010895833041F510922701809128014F
S1130BF0909129018F3F2FEF9207F1F0E0910401CA
S1130C00F0910501099508950E94AD058823A1F08E
S1130C101092270190912E01916090932E011092D1
S1130C202C01109229011092280110922A01E091BE
S1130C300201F091030109950895EF92FF920F9339
S1130C401F93CF93DF93E82E162FF42E022FCCEBB5
S1130C50D0E002C00E94B505888180FDFBCF809161
S1130C6027018111F7CF81E080932701612F70E084
S1130C707093290160932801E0922C01F0922B01DA
S1130C8000932A01DF91CF911F910F91FF90EF9074
S1130C900895DF92EF92FF920F931F93CF93DF9308
S1130CA0D82EE62E8A01F22ECCEBD0E002C00E94B0
S1130CB0B505888180FDFBCF809127018111F7CF95
S1130CC081E080932701D0922C018FEF9FEF9093C6
S1130CD0290180932801E0922B01F0922A01CCEBA8
S1130CE0D0E002C00E94B505888180FDFBCF8091D1
S1130CF027018111F7CF80912E0180FF05C061E0AB
S1130D006F0DC8010E949305DF91CF911F910F9140
S1130D10FF90EF90DF9008950F931F93CF93DF938D
S1130D20082F162FCCEBD0E002C00E94B5058881B5
S1130D3080FDFBCF809127018111F7CF0E948205AE
S1130D4082E080932F01E0E6F1E0008311831092AA
S1130D502E0185EA8093BC00DF91CF911F910F9102
S1130D600895EF92FF920F931F93CF93DF93E82E92
S1130D70F62E042F122FCCEBD0E002C00E94B50552
S1130D80888180FDFBCF809127018111F7CF0E94DC
S1130D90820584E080932F01E0E6F1E0E082F182B5
S1130DA00283138310922E0185EA8093BC00DF91A5
S1130DB0CF911F910F91FF90EF900895DF92EF92E2
S1130DC0FF920F931F93CF93DF93D82EE62EF42E2A
S1130DD0122FCCEBD0E002C00E94B505888180FDC3
S1130DE0FBCF809127018111F7CF0E94820585E016
S1130DF080932F01E0E6F1E0D082E182F282138356
S1130E00048310922E0185EA8093BC00DF91CF9178
S1130E101F910F91FF90EF90DF9008951F920F9212
S1130E200FB60F9211242F933F938F939F93AF93F9
S1130E30BF93EF93FF93E091B9008E2F90E0FC01F4
S1130E403897E135F10508F05AC0E25CFF4F0C9485
S1130E50660A10922601E091260180912F01E8177D
S1130E6070F481E08E0F80932601F0E0E05AFE4F8B
S1130E7080818093BB0085E88093BC0047C080914B
S1130E802E01816080932E0184E98093BC003EC0D2
S1130E90E091260181E08E0F809326018091BB00B2
S1130EA0F0E0E05DFE4F80832091260130E08091E8
S1130EB02F0190E001972817390724F485EC8093DB
S1130EC0BC0024C085E88093BC0020C08091BB0096
S1130ED0E0912601F0E0E05DFE4F808380912E01D9
S1130EE0816080932E0184E98093BC000FC08091BF
S1130EF0B90080932D0185EA8093BC0007C08091DE
S1130F00B90080932D0184E98093BC00FF91EF9197
S1130F10BF91AF919F918F913F912F910F900FBEF1
S1130F200F901F9018950895DC01CB01880F991F2D
S1130F30AA1FBB1F880F991FAA1FBB1F9C01AD01CD
S1130F40220F331F441F551F220F331F441F551FE9
S1130F5060E07DE281E391E00E94440ABA01A901C4
S1130F6041505109610971091092C000BB27A72F94
S1130F70962F852F8093C5004093C40088E9809301
S1130F80C10086E08093C2000895DC01CB01880F84
S1130F90991FAA1FBB1F880F991FAA1FBB1F9C0163
S1130FA0AD01220F331F441F551F220F331F441F4F
S1130FB0551F60E07DE281E391E00E94440ABA019A
S1130FC0A90141505109610971091092C800BB2758
S1130FD0A72F962F852F8093CD004093CC0088E9CE
S1130FE08093C90086E08093CA000895E0ECF0E0A5
S1130FF0908195FFFDCF8093C6000895CF93DF9332
S1131000FC012081222369F0DC011196E0ECF0E080
S1131010C6ECD0E0908195FFFDCF28832D9121115E
S1131020F9CFDF91CF910895E8ECF0E0908195FF3E
S1131030FDCF8093CE0008951F920F920FB60F92AA
S113104011240F900FBE0F901F90189590930701D5
S113105080930601089520919A0130919B01293CC7
S11310603105D8F0109295011092940110929301D9
S1131070109292011092910190E2E1E7F1E0DF0118
S11310801D929A95E9F710927001E9E9F1E09081D7
S11310909E7F90831282118212C0909195019230AA
S11310A081F128F4992359F09130C9F008959430CE
S11310B009F448C0C0F1953009F460C00895813046
S11310C009F091C080939501809194018F5F809382
S11310D09401E9E9F1E080818160808308958F3F84
S11310E049F4809194018F5F8093940182E080930E
S11310F0950102C01092950110929B0110929A01E1
S11311000895809393018550809392018091940176
S11311108F5F8093940183E08093950110929B01EB
S113112010929A01089580939101809194018F5FA8
S11311308093940184E08093950110929B01109216
S11311409A01089590917001E92FF0E0EF58FE4F55
S1131150808381E0890F80937001909194019F5F57
S11311609093940190919201891303C085E0809338
S1131170950110929B0110929A0108959091940107
S11311809F5F9093940121E030919301391320E003
S1131190222379F091E0843009F090E0992349F01A
S11311A0E0910601F091070161E771E080919101FE
S11311B00995109295011092940110929301109246
S11311C092011092910180E2E1E7F1E0DF011D92CA
S11311D08A95E9F710927001E9E9F1E080818E7F48
S11311E080831282118208951F920F920FB60F927C
S11311F011242F933F934F935F936F937F938F9318
S11312009F93AF93BF93EF93FF938091CE000E947F
S11312102B08FF91EF91BF91AF919F918F917F9197
S11312206F915F914F913F912F910F900FBE0F904F
S11312301F9018950E948E0988F09F5798F0B92F37
S11312409927B751B0F0E1F0660F771F881F991FF7
S11312501AF0BA95C9F714C0B13091F00E94A809E8
S1131260B1E008950C94A809672F782F8827B85FF8
S113127039F0B93FCCF3869577956795B395D9F74F
S11312803EF490958095709561957F4F8F4F9F4F59
S11312900895E89409C097FB3EF490958095709565
S11312A061957F4F8F4F9F4F9923A9F0F92F96E9AE
S11312B0BB279395F695879577956795B795F11123
S11312C0F8CFFAF4BB0F11F460FF1BC06F5F7F4FC0
S11312D08F4F9F4F16C0882311F096E911C07723D2
S11312E021F09EE8872F762F05C0662371F096E8DB
S11312F0862F70E060E02AF09A95660F771F881FAA
S1131300DAF7880F9695879597F9089557FD9058C1
S1131310440F551F59F05F3F71F04795880F97FBB5
S1131320991F61F09F3F79F087950895121613066F
S11313301406551FF2CF4695F1DF08C0161617069E
S11313401806991FF1CF86957105610508940895D3
S1131350E894BB2766277727CB0197F908950E9465
S1131360C2090C94330A0E94250A38F00E942C0A00
S113137020F0952311F00C941C0A0C94220A1124D9
S11313800C94A9090E94860970F3959FC1F3950FE7
S113139050E0551F629FF001729FBB27F00DB11DF5
S11313A0639FAA27F00DB11DAA1F649F6627B00D85
S11313B0A11D661F829F2227B00DA11D621F739F6E
S11313C0B00DA11D621F839FA00D611D221F749F7C
S11313D03327A00D611D231F849F600D211D822FC3
S11313E0762F6A2F11249F5750409AF0F1F08823EA
S11313F04AF0EE0FFF1FBB1F661F771F881F915017
S11314005040A9F79E3F510580F00C941C0A0C949F
S1131410A9095F3FE4F3983ED4F3869577956795E1
S1131420B795F795E7959F5FC1F7FE2B880F911D40
S11314309695879597F9089597F99F6780E870E0E6
S113144060E008959FEF80EC089500240A94161636
S1131450170618060906089500240A94121613069E
S1131460140605060895092E0394000C11F488232C
S113147052F0BB0F40F4BF2B11F460FF04C06F5F48
S11314807F4F8F4F9F4F0895A1E21A2EAA1BBB1BBB
S1131490FD010DC0AA1FBB1FEE1FFF1FA217B3073C
S11314A0E407F50720F0A21BB30BE40BF50B661F52
S11314B0771F881F991F1A9469F760957095809516
S11314C090959B01AC01BD01CF010895EE0FFF1F64
S10F14D00590F491E02D0994F894FFCFEE
S11314DCAE006505640593070A4932432045525210
S11314EC4F52202D205457492053544154453A20EF
S10714FC3078000040
S9030000FC
